{
  "_format": "hh-sol-artifact-1",
  "contractName": "ResumeVerifier",
  "sourceName": "contracts/ResumeVerifier.sol",
  "abi": [
    {
      "inputs": [],
      "stateMutability": "nonpayable",
      "type": "constructor"
    },
    {
      "anonymous": false,
      "inputs": [
        {
          "indexed": true,
          "internalType": "address",
          "name": "previousAdmin",
          "type": "address"
        },
        {
          "indexed": true,
          "internalType": "address",
          "name": "newAdmin",
          "type": "address"
        }
      ],
      "name": "AdminTransferred",
      "type": "event"
    },
    {
      "anonymous": false,
      "inputs": [
        {
          "indexed": true,
          "internalType": "address",
          "name": "owner",
          "type": "address"
        },
        {
          "indexed": false,
          "internalType": "string",
          "name": "ipfsCid",
          "type": "string"
        },
        {
          "indexed": false,
          "internalType": "uint256",
          "name": "timestamp",
          "type": "uint256"
        }
      ],
      "name": "ResumeUploaded",
      "type": "event"
    },
    {
      "anonymous": false,
      "inputs": [
        {
          "indexed": true,
          "internalType": "address",
          "name": "owner",
          "type": "address"
        },
        {
          "indexed": false,
          "internalType": "uint256",
          "name": "resumeIndex",
          "type": "uint256"
        },
        {
          "indexed": true,
          "internalType": "address",
          "name": "verifier",
          "type": "address"
        },
        {
          "indexed": false,
          "internalType": "uint256",
          "name": "timestamp",
          "type": "uint256"
        }
      ],
      "name": "ResumeVerified",
      "type": "event"
    },
    {
      "inputs": [],
      "name": "admin",
      "outputs": [
        {
          "internalType": "address",
          "name": "",
          "type": "address"
        }
      ],
      "stateMutability": "view",
      "type": "function"
    },
    {
      "inputs": [
        {
          "internalType": "address",
          "name": "_candidate",
          "type": "address"
        }
      ],
      "name": "getAllResumes",
      "outputs": [
        {
          "components": [
            {
              "internalType": "string",
              "name": "name",
              "type": "string"
            },
            {
              "internalType": "string",
              "name": "ipfsCid",
              "type": "string"
            },
            {
              "internalType": "uint256",
              "name": "uploadedAt",
              "type": "uint256"
            },
            {
              "internalType": "bool",
              "name": "isVerified",
              "type": "bool"
            }
          ],
          "internalType": "struct ResumeVerifier.Resume[]",
          "name": "",
          "type": "tuple[]"
        }
      ],
      "stateMutability": "view",
      "type": "function"
    },
    {
      "inputs": [
        {
          "internalType": "address",
          "name": "_candidate",
          "type": "address"
        },
        {
          "internalType": "uint256",
          "name": "_resumeIndex",
          "type": "uint256"
        }
      ],
      "name": "getResume",
      "outputs": [
        {
          "internalType": "string",
          "name": "name",
          "type": "string"
        },
        {
          "internalType": "string",
          "name": "ipfsCid",
          "type": "string"
        },
        {
          "internalType": "uint256",
          "name": "uploadedAt",
          "type": "uint256"
        },
        {
          "internalType": "bool",
          "name": "isVerified",
          "type": "bool"
        }
      ],
      "stateMutability": "view",
      "type": "function"
    },
    {
      "inputs": [
        {
          "internalType": "address",
          "name": "_newAdmin",
          "type": "address"
        }
      ],
      "name": "transferAdmin",
      "outputs": [],
      "stateMutability": "nonpayable",
      "type": "function"
    },
    {
      "inputs": [
        {
          "internalType": "string",
          "name": "_name",
          "type": "string"
        },
        {
          "internalType": "string",
          "name": "_ipfsCid",
          "type": "string"
        }
      ],
      "name": "uploadResume",
      "outputs": [],
      "stateMutability": "nonpayable",
      "type": "function"
    },
    {
      "inputs": [
        {
          "internalType": "address",
          "name": "_candidate",
          "type": "address"
        },
        {
          "internalType": "uint256",
          "name": "_resumeIndex",
          "type": "uint256"
        }
      ],
      "name": "verifyResume",
      "outputs": [],
      "stateMutability": "nonpayable",
      "type": "function"
    }
  ],
  "bytecode": "0x608060405234801561001057600080fd5b5033600160006101000a81548173ffffffffffffffffffffffffffffffffffffffff021916908373ffffffffffffffffffffffffffffffffffffffff160217905550611521806100616000396000f3fe608060405234801561001057600080fd5b50600436106100625760003560e01c8063148f35ac1461006757806332e89a421461008357806375829def1461009f578063b2a9adf6146100bb578063e88f526e146100eb578063f851a4401461011e575b600080fd5b610081600480360381019061007c9190610b94565b61013c565b005b61009d60048036038101906100989190610c39565b610334565b005b6100b960048036038101906100b49190610cba565b6104f7565b005b6100d560048036038101906100d09190610cba565b6106b6565b6040516100e29190610ecd565b60405180910390f35b61010560048036038101906101009190610b94565b61089c565b6040516101159493929190610f57565b60405180910390f35b610126610ad0565b6040516101339190610fb9565b60405180910390f35b600160009054906101000a900473ffffffffffffffffffffffffffffffffffffffff1673ffffffffffffffffffffffffffffffffffffffff163373ffffffffffffffffffffffffffffffffffffffff16146101cc576040517f08c379a00000000000000000000000000000000000000000000000000000000081526004016101c390611020565b60405180910390fd5b6000808373ffffffffffffffffffffffffffffffffffffffff1673ffffffffffffffffffffffffffffffffffffffff16815260200190815260200160002080549050811061024f576040517f08c379a00000000000000000000000000000000000000000000000000000000081526004016102469061108c565b60405180910390fd5b60016000808473ffffffffffffffffffffffffffffffffffffffff1673ffffffffffffffffffffffffffffffffffffffff16815260200190815260200160002082815481106102a1576102a06110ac565b5b906000526020600020906004020160030160006101000a81548160ff0219169083151502179055503373ffffffffffffffffffffffffffffffffffffffff168273ffffffffffffffffffffffffffffffffffffffff167fead10320e59f7d43b779756ae4530dd973a146495e6c451c36ddc960116ddf4983426040516103289291906110db565b60405180910390a35050565b6000803373ffffffffffffffffffffffffffffffffffffffff1673ffffffffffffffffffffffffffffffffffffffff168152602001908152602001600020604051806080016040528086868080601f016020809104026020016040519081016040528093929190818152602001838380828437600081840152601f19601f82011690508083019250505050505050815260200184848080601f016020809104026020016040519081016040528093929190818152602001838380828437600081840152601f19601f820116905080830192505050505050508152602001428152602001600015158152509080600181540180825580915050600190039060005260206000209060040201600090919091909150600082015181600001908161045c919061133f565b506020820151816001019081610472919061133f565b506040820151816002015560608201518160030160006101000a81548160ff02191690831515021790555050503373ffffffffffffffffffffffffffffffffffffffff167fd0f7f3331311be6b42c9f49aa4e4c7c910658ce78847d18003318d5d7c4108e28383426040516104e99392919061144d565b60405180910390a250505050565b600160009054906101000a900473ffffffffffffffffffffffffffffffffffffffff1673ffffffffffffffffffffffffffffffffffffffff163373ffffffffffffffffffffffffffffffffffffffff1614610587576040517f08c379a000000000000000000000000000000000000000000000000000000000815260040161057e90611020565b60405180910390fd5b600073ffffffffffffffffffffffffffffffffffffffff168173ffffffffffffffffffffffffffffffffffffffff16036105f6576040517f08c379a00000000000000000000000000000000000000000000000000000000081526004016105ed906114cb565b60405180910390fd5b8073ffffffffffffffffffffffffffffffffffffffff16600160009054906101000a900473ffffffffffffffffffffffffffffffffffffffff1673ffffffffffffffffffffffffffffffffffffffff167ff8ccb027dfcd135e000e9d45e6cc2d662578a8825d4c45b5e32e0adf67e79ec660405160405180910390a380600160006101000a81548173ffffffffffffffffffffffffffffffffffffffff021916908373ffffffffffffffffffffffffffffffffffffffff16021790555050565b60606000808373ffffffffffffffffffffffffffffffffffffffff1673ffffffffffffffffffffffffffffffffffffffff168152602001908152602001600020805480602002602001604051908101604052809291908181526020016000905b82821015610891578382906000526020600020906004020160405180608001604052908160008201805461074990611162565b80601f016020809104026020016040519081016040528092919081815260200182805461077590611162565b80156107c25780601f10610797576101008083540402835291602001916107c2565b820191906000526020600020905b8154815290600101906020018083116107a557829003601f168201915b505050505081526020016001820180546107db90611162565b80601f016020809104026020016040519081016040528092919081815260200182805461080790611162565b80156108545780601f1061082957610100808354040283529160200191610854565b820191906000526020600020905b81548152906001019060200180831161083757829003601f168201915b50505050508152602001600282015481526020016003820160009054906101000a900460ff16151515158152505081526020019060010190610716565b505050509050919050565b6060806000806000808773ffffffffffffffffffffffffffffffffffffffff1673ffffffffffffffffffffffffffffffffffffffff168152602001908152602001600020805490508510610925576040517f08c379a000000000000000000000000000000000000000000000000000000000815260040161091c9061108c565b60405180910390fd5b60008060008873ffffffffffffffffffffffffffffffffffffffff1673ffffffffffffffffffffffffffffffffffffffff1681526020019081526020016000208681548110610977576109766110ac565b5b90600052602060002090600402019050806000018160010182600201548360030160009054906101000a900460ff168380546109b290611162565b80601f01602080910402602001604051908101604052809291908181526020018280546109de90611162565b8015610a2b5780601f10610a0057610100808354040283529160200191610a2b565b820191906000526020600020905b815481529060010190602001808311610a0e57829003601f168201915b50505050509350828054610a3e90611162565b80601f0160208091040260200160405190810160405280929190818152602001828054610a6a90611162565b8015610ab75780601f10610a8c57610100808354040283529160200191610ab7565b820191906000526020600020905b815481529060010190602001808311610a9a57829003601f168201915b5050505050925094509450945094505092959194509250565b600160009054906101000a900473ffffffffffffffffffffffffffffffffffffffff1681565b600080fd5b600080fd5b600073ffffffffffffffffffffffffffffffffffffffff82169050919050565b6000610b2b82610b00565b9050919050565b610b3b81610b20565b8114610b4657600080fd5b50565b600081359050610b5881610b32565b92915050565b6000819050919050565b610b7181610b5e565b8114610b7c57600080fd5b50565b600081359050610b8e81610b68565b92915050565b60008060408385031215610bab57610baa610af6565b5b6000610bb985828601610b49565b9250506020610bca85828601610b7f565b9150509250929050565b600080fd5b600080fd5b600080fd5b60008083601f840112610bf957610bf8610bd4565b5b8235905067ffffffffffffffff811115610c1657610c15610bd9565b5b602083019150836001820283011115610c3257610c31610bde565b5b9250929050565b60008060008060408587031215610c5357610c52610af6565b5b600085013567ffffffffffffffff811115610c7157610c70610afb565b5b610c7d87828801610be3565b9450945050602085013567ffffffffffffffff811115610ca057610c9f610afb565b5b610cac87828801610be3565b925092505092959194509250565b600060208284031215610cd057610ccf610af6565b5b6000610cde84828501610b49565b91505092915050565b600081519050919050565b600082825260208201905092915050565b6000819050602082019050919050565b600081519050919050565b600082825260208201905092915050565b60005b83811015610d4d578082015181840152602081019050610d32565b60008484015250505050565b6000601f19601f8301169050919050565b6000610d7582610d13565b610d7f8185610d1e565b9350610d8f818560208601610d2f565b610d9881610d59565b840191505092915050565b610dac81610b5e565b82525050565b60008115159050919050565b610dc781610db2565b82525050565b60006080830160008301518482036000860152610dea8282610d6a565b91505060208301518482036020860152610e048282610d6a565b9150506040830151610e196040860182610da3565b506060830151610e2c6060860182610dbe565b508091505092915050565b6000610e438383610dcd565b905092915050565b6000602082019050919050565b6000610e6382610ce7565b610e6d8185610cf2565b935083602082028501610e7f85610d03565b8060005b85811015610ebb5784840389528151610e9c8582610e37565b9450610ea783610e4b565b925060208a01995050600181019050610e83565b50829750879550505050505092915050565b60006020820190508181036000830152610ee78184610e58565b905092915050565b600082825260208201905092915050565b6000610f0b82610d13565b610f158185610eef565b9350610f25818560208601610d2f565b610f2e81610d59565b840191505092915050565b610f4281610b5e565b82525050565b610f5181610db2565b82525050565b60006080820190508181036000830152610f718187610f00565b90508181036020830152610f858186610f00565b9050610f946040830185610f39565b610fa16060830184610f48565b95945050505050565b610fb381610b20565b82525050565b6000602082019050610fce6000830184610faa565b92915050565b7f4f4e4c592041444d494e2043414e2043414c4c20544849530000000000000000600082015250565b600061100a601883610eef565b915061101582610fd4565b602082019050919050565b6000602082019050818103600083015261103981610ffd565b9050919050565b7f494e56414c494420524553554d4520494e444558000000000000000000000000600082015250565b6000611076601483610eef565b915061108182611040565b602082019050919050565b600060208201905081810360008301526110a581611069565b9050919050565b7f4e487b7100000000000000000000000000000000000000000000000000000000600052603260045260246000fd5b60006040820190506110f06000830185610f39565b6110fd6020830184610f39565b9392505050565b7f4e487b7100000000000000000000000000000000000000000000000000000000600052604160045260246000fd5b7f4e487b7100000000000000000000000000000000000000000000000000000000600052602260045260246000fd5b6000600282049050600182168061117a57607f821691505b60208210810361118d5761118c611133565b5b50919050565b60008190508160005260206000209050919050565b60006020601f8301049050919050565b600082821b905092915050565b6000600883026111f57fffffffffffffffffffffffffffffffffffffffffffffffffffffffffffffffff826111b8565b6111ff86836111b8565b95508019841693508086168417925050509392505050565b6000819050919050565b600061123c61123761123284610b5e565b611217565b610b5e565b9050919050565b6000819050919050565b61125683611221565b61126a61126282611243565b8484546111c5565b825550505050565b600090565b61127f611272565b61128a81848461124d565b505050565b5b818110156112ae576112a3600082611277565b600181019050611290565b5050565b601f8211156112f3576112c481611193565b6112cd846111a8565b810160208510156112dc578190505b6112f06112e8856111a8565b83018261128f565b50505b505050565b600082821c905092915050565b6000611316600019846008026112f8565b1980831691505092915050565b600061132f8383611305565b9150826002028217905092915050565b61134882610d13565b67ffffffffffffffff81111561136157611360611104565b5b61136b8254611162565b6113768282856112b2565b600060209050601f8311600181146113a95760008415611397578287015190505b6113a18582611323565b865550611409565b601f1984166113b786611193565b60005b828110156113df578489015182556001820191506020850194506020810190506113ba565b868310156113fc57848901516113f8601f891682611305565b8355505b6001600288020188555050505b505050505050565b82818337600083830152505050565b600061142c8385610eef565b9350611439838584611411565b61144283610d59565b840190509392505050565b60006040820190508181036000830152611468818587611420565b90506114776020830184610f39565b949350505050565b7f4e45572041444d494e204953205a45524f204144445245535300000000000000600082015250565b60006114b5601983610eef565b91506114c08261147f565b602082019050919050565b600060208201905081810360008301526114e4816114a8565b905091905056fea26469706673582212206c2d99579af241cfe6cd1846298a1b65aceba6d2b2f2906b12027b3ef13c14a564736f6c63430008130033",
  "linkReferences": {},
  "deployedLinkReferences": {}
}